:100000000C942A000C943F000C943F000C943F0089
:100010000C943F000C943F000C943F000C943F0064
:100020000C943F000C943F000C943F000C943F0054
:100030000C943F000C943F000C943F000C943F0044
:100040000C943F000C943F000C943F000C943F0034
:100050000C943F0011241FBECFE5D4E0DEBFCDBF1E
:1000600010E0A0E6B0E0E2ECF1E002C005900D92F5
:10007000AE36B107D9F70E9483000C94DF000C94D0
:10008000000088BBA898A998AA9A0000AA988DEEAB
:1000900092E00197F1F700C00000089588BBA89A8C
:1000A000A998AA9A0000AA9889EF90E00197F1F721
:1000B00000C0000008958FEF84BB87BB87E893E101
:1000C0000197F1F700C0000088E30E9441008CE036
:1000D0000E94410086E00E94410081E00E944100B0
:1000E00080E80E9441000895CF93DF93EC0188815E
:1000F000882331F021960E944E0089918111FBCF17
:10010000DF91CF910895CF93DF9300D000D01F925D
:10011000CDB7DEB71ABA0E945B0080E690E00E947D
:10012000740080EC0E94410089B34AE0BE016F5F19
:100130007F4F90E00E94AA00CE0101960E947400B9
:100140002FE986E891E0215080409040E1F700C01F
:100150000000E1CFBB274A3031F4992322F4BDE2FD
:10016000909581959F4F0C94B600BB27FB015527B6
:10017000AA27880F991FAA1FA41710F0A41B839504
:100180005051B9F7A05DAA3308F0A95DA19300977B
:1001900079F7B111B1931192CB010C94CF00DC012E
:1001A000FC01672F71917723E1F7329704C07C91AE
:1001B0006D9370836291AE17BF07C8F30895F894EA
:0201C000FFCF6F
:0E01C200526573756C74206F6620414C5500B9
:00000001FF
